{
  "_format": "hh-sol-artifact-1",
  "contractName": "minttreesNFT",
  "sourceName": "contracts/minttreesNFT.sol",
  "abi": [
    {
      "inputs": [],
      "stateMutability": "nonpayable",
      "type": "constructor"
    },
    {
      "anonymous": false,
      "inputs": [
        {
          "indexed": true,
          "internalType": "address",
          "name": "owner",
          "type": "address"
        },
        {
          "indexed": true,
          "internalType": "address",
          "name": "approved",
          "type": "address"
        },
        {
          "indexed": true,
          "internalType": "uint256",
          "name": "tokenId",
          "type": "uint256"
        }
      ],
      "name": "Approval",
      "type": "event"
    },
    {
      "anonymous": false,
      "inputs": [
        {
          "indexed": true,
          "internalType": "address",
          "name": "owner",
          "type": "address"
        },
        {
          "indexed": true,
          "internalType": "address",
          "name": "operator",
          "type": "address"
        },
        {
          "indexed": false,
          "internalType": "bool",
          "name": "approved",
          "type": "bool"
        }
      ],
      "name": "ApprovalForAll",
      "type": "event"
    },
    {
      "anonymous": false,
      "inputs": [
        {
          "indexed": false,
          "internalType": "address",
          "name": "sender",
          "type": "address"
        },
        {
          "indexed": false,
          "internalType": "uint256",
          "name": "tokenId",
          "type": "uint256"
        }
      ],
      "name": "NewTreeMinted",
      "type": "event"
    },
    {
      "anonymous": false,
      "inputs": [
        {
          "indexed": true,
          "internalType": "address",
          "name": "from",
          "type": "address"
        },
        {
          "indexed": true,
          "internalType": "address",
          "name": "to",
          "type": "address"
        },
        {
          "indexed": true,
          "internalType": "uint256",
          "name": "tokenId",
          "type": "uint256"
        }
      ],
      "name": "Transfer",
      "type": "event"
    },
    {
      "inputs": [
        {
          "internalType": "address",
          "name": "to",
          "type": "address"
        },
        {
          "internalType": "uint256",
          "name": "tokenId",
          "type": "uint256"
        }
      ],
      "name": "approve",
      "outputs": [],
      "stateMutability": "nonpayable",
      "type": "function"
    },
    {
      "inputs": [
        {
          "internalType": "address",
          "name": "owner",
          "type": "address"
        }
      ],
      "name": "balanceOf",
      "outputs": [
        {
          "internalType": "uint256",
          "name": "",
          "type": "uint256"
        }
      ],
      "stateMutability": "view",
      "type": "function"
    },
    {
      "inputs": [
        {
          "internalType": "uint256",
          "name": "tokenId",
          "type": "uint256"
        }
      ],
      "name": "getApproved",
      "outputs": [
        {
          "internalType": "address",
          "name": "",
          "type": "address"
        }
      ],
      "stateMutability": "view",
      "type": "function"
    },
    {
      "inputs": [
        {
          "internalType": "address",
          "name": "owner",
          "type": "address"
        },
        {
          "internalType": "address",
          "name": "operator",
          "type": "address"
        }
      ],
      "name": "isApprovedForAll",
      "outputs": [
        {
          "internalType": "bool",
          "name": "",
          "type": "bool"
        }
      ],
      "stateMutability": "view",
      "type": "function"
    },
    {
      "inputs": [],
      "name": "minttree",
      "outputs": [],
      "stateMutability": "nonpayable",
      "type": "function"
    },
    {
      "inputs": [],
      "name": "name",
      "outputs": [
        {
          "internalType": "string",
          "name": "",
          "type": "string"
        }
      ],
      "stateMutability": "view",
      "type": "function"
    },
    {
      "inputs": [
        {
          "internalType": "uint256",
          "name": "tokenId",
          "type": "uint256"
        }
      ],
      "name": "ownerOf",
      "outputs": [
        {
          "internalType": "address",
          "name": "",
          "type": "address"
        }
      ],
      "stateMutability": "view",
      "type": "function"
    },
    {
      "inputs": [
        {
          "internalType": "address",
          "name": "from",
          "type": "address"
        },
        {
          "internalType": "address",
          "name": "to",
          "type": "address"
        },
        {
          "internalType": "uint256",
          "name": "tokenId",
          "type": "uint256"
        }
      ],
      "name": "safeTransferFrom",
      "outputs": [],
      "stateMutability": "nonpayable",
      "type": "function"
    },
    {
      "inputs": [
        {
          "internalType": "address",
          "name": "from",
          "type": "address"
        },
        {
          "internalType": "address",
          "name": "to",
          "type": "address"
        },
        {
          "internalType": "uint256",
          "name": "tokenId",
          "type": "uint256"
        },
        {
          "internalType": "bytes",
          "name": "_data",
          "type": "bytes"
        }
      ],
      "name": "safeTransferFrom",
      "outputs": [],
      "stateMutability": "nonpayable",
      "type": "function"
    },
    {
      "inputs": [
        {
          "internalType": "address",
          "name": "operator",
          "type": "address"
        },
        {
          "internalType": "bool",
          "name": "approved",
          "type": "bool"
        }
      ],
      "name": "setApprovalForAll",
      "outputs": [],
      "stateMutability": "nonpayable",
      "type": "function"
    },
    {
      "inputs": [
        {
          "internalType": "bytes4",
          "name": "interfaceId",
          "type": "bytes4"
        }
      ],
      "name": "supportsInterface",
      "outputs": [
        {
          "internalType": "bool",
          "name": "",
          "type": "bool"
        }
      ],
      "stateMutability": "view",
      "type": "function"
    },
    {
      "inputs": [],
      "name": "symbol",
      "outputs": [
        {
          "internalType": "string",
          "name": "",
          "type": "string"
        }
      ],
      "stateMutability": "view",
      "type": "function"
    },
    {
      "inputs": [
        {
          "internalType": "uint256",
          "name": "tokenId",
          "type": "uint256"
        }
      ],
      "name": "tokenURI",
      "outputs": [
        {
          "internalType": "string",
          "name": "",
          "type": "string"
        }
      ],
      "stateMutability": "view",
      "type": "function"
    },
    {
      "inputs": [
        {
          "internalType": "address",
          "name": "from",
          "type": "address"
        },
        {
          "internalType": "address",
          "name": "to",
          "type": "address"
        },
        {
          "internalType": "uint256",
          "name": "tokenId",
          "type": "uint256"
        }
      ],
      "name": "transferFrom",
      "outputs": [],
      "stateMutability": "nonpayable",
      "type": "function"
    }
  ],
  "bytecode": "0x60806040526040518061052001604052806104eb8152602001620038c26104eb9139600890805190602001906200003892919062000304565b506040518060400160405280600a81526020017f6d696e7420747265657300000000000000000000000000000000000000000000815250600990805190602001906200008692919062000304565b5060405180606001604052806030815260200162003dad60309139600a9080519060200190620000b892919062000304565b5060405180606001604052806029815260200162003ddd60299139600b9080519060200190620000ea92919062000304565b506040518060400160405280600181526020017f3100000000000000000000000000000000000000000000000000000000000000815250600c90805190602001906200013892919062000304565b503480156200014657600080fd5b506040518060400160405280600781526020017f747265654e4654000000000000000000000000000000000000000000000000008152506040518060400160405280600481526020017f74726565000000000000000000000000000000000000000000000000000000008152508160009080519060200190620001cb92919062000304565b508060019080519060200190620001e492919062000304565b505050620002326040518060400160405280601d81526020017f7472656573206d696e7465642e2041204d2041205a2049204e204720210000008152506200023860201b62000c471760201c565b620004e1565b620002d8816040516024016200024f9190620003f5565b6040516020818303038152906040527f41304fac000000000000000000000000000000000000000000000000000000007bffffffffffffffffffffffffffffffffffffffffffffffffffffffff19166020820180517bffffffffffffffffffffffffffffffffffffffffffffffffffffffff8381831617835250505050620002db60201b60201c565b50565b60008151905060006a636f6e736f6c652e6c6f679050602083016000808483855afa5050505050565b82805462000312906200046b565b90600052602060002090601f01602090048101928262000336576000855562000382565b82601f106200035157805160ff191683800117855562000382565b8280016001018555821562000382579182015b828111156200038157825182559160200191906001019062000364565b5b50905062000391919062000395565b5090565b5b80821115620003b057600081600090555060010162000396565b5090565b6000620003c18262000419565b620003cd818562000424565b9350620003df81856020860162000435565b620003ea81620004d0565b840191505092915050565b60006020820190508181036000830152620004118184620003b4565b905092915050565b600081519050919050565b600082825260208201905092915050565b60005b838110156200045557808201518184015260208101905062000438565b8381111562000465576000848401525b50505050565b600060028204905060018216806200048457607f821691505b602082108114156200049b576200049a620004a1565b5b50919050565b7f4e487b7100000000000000000000000000000000000000000000000000000000600052602260045260246000fd5b6000601f19601f8301169050919050565b6133d180620004f16000396000f3fe608060405234801561001057600080fd5b50600436106100ea5760003560e01c806370a082311161008c578063b327ba0111610066578063b327ba011461025b578063b88d4fde14610265578063c87b56dd14610281578063e985e9c5146102b1576100ea565b806370a08231146101f157806395d89b4114610221578063a22cb4651461023f576100ea565b8063095ea7b3116100c8578063095ea7b31461016d57806323b872dd1461018957806342842e0e146101a55780636352211e146101c1576100ea565b806301ffc9a7146100ef57806306fdde031461011f578063081812fc1461013d575b600080fd5b6101096004803603810190610104919061200c565b6102e1565b604051610116919061265e565b60405180910390f35b6101276103c3565b6040516101349190612679565b60405180910390f35b6101576004803603810190610152919061205e565b610455565b60405161016491906125ce565b60405180910390f35b61018760048036038101906101829190611fd0565b6104da565b005b6101a3600480360381019061019e9190611eca565b6105f2565b005b6101bf60048036038101906101ba9190611eca565b610652565b005b6101db60048036038101906101d6919061205e565b610672565b6040516101e891906125ce565b60405180910390f35b61020b60048036038101906102069190611e65565b610724565b60405161021891906128d9565b60405180910390f35b6102296107dc565b6040516102369190612679565b60405180910390f35b61025960048036038101906102549190611f94565b61086e565b005b610263610884565b005b61027f600480360381019061027a9190611f19565b6109ff565b005b61029b6004803603810190610296919061205e565b610a61565b6040516102a89190612679565b60405180910390f35b6102cb60048036038101906102c69190611e8e565b610bb3565b6040516102d8919061265e565b60405180910390f35b60007f80ac58cd000000000000000000000000000000000000000000000000000000007bffffffffffffffffffffffffffffffffffffffffffffffffffffffff1916827bffffffffffffffffffffffffffffffffffffffffffffffffffffffff191614806103ac57507f5b5e139f000000000000000000000000000000000000000000000000000000007bffffffffffffffffffffffffffffffffffffffffffffffffffffffff1916827bffffffffffffffffffffffffffffffffffffffffffffffffffffffff1916145b806103bc57506103bb82610ce0565b5b9050919050565b6060600080546103d290612b6d565b80601f01602080910402602001604051908101604052809291908181526020018280546103fe90612b6d565b801561044b5780601f106104205761010080835404028352916020019161044b565b820191906000526020600020905b81548152906001019060200180831161042e57829003601f168201915b5050505050905090565b600061046082610d4a565b61049f576040517f08c379a000000000000000000000000000000000000000000000000000000000815260040161049690612859565b60405180910390fd5b6004600083815260200190815260200160002060009054906101000a900473ffffffffffffffffffffffffffffffffffffffff169050919050565b60006104e582610672565b90508073ffffffffffffffffffffffffffffffffffffffff168373ffffffffffffffffffffffffffffffffffffffff161415610556576040517f08c379a000000000000000000000000000000000000000000000000000000000815260040161054d90612899565b60405180910390fd5b8073ffffffffffffffffffffffffffffffffffffffff16610575610db6565b73ffffffffffffffffffffffffffffffffffffffff1614806105a457506105a38161059e610db6565b610bb3565b5b6105e3576040517f08c379a00000000000000000000000000000000000000000000000000000000081526004016105da90612799565b60405180910390fd5b6105ed8383610dbe565b505050565b6106036105fd610db6565b82610e77565b610642576040517f08c379a0000000000000000000000000000000000000000000000000000000008152600401610639906128b9565b60405180910390fd5b61064d838383610f55565b505050565b61066d838383604051806020016040528060008152506109ff565b505050565b6000806002600084815260200190815260200160002060009054906101000a900473ffffffffffffffffffffffffffffffffffffffff169050600073ffffffffffffffffffffffffffffffffffffffff168173ffffffffffffffffffffffffffffffffffffffff16141561071b576040517f08c379a0000000000000000000000000000000000000000000000000000000008152600401610712906127d9565b60405180910390fd5b80915050919050565b60008073ffffffffffffffffffffffffffffffffffffffff168273ffffffffffffffffffffffffffffffffffffffff161415610795576040517f08c379a000000000000000000000000000000000000000000000000000000000815260040161078c906127b9565b60405180910390fd5b600360008373ffffffffffffffffffffffffffffffffffffffff1673ffffffffffffffffffffffffffffffffffffffff168152602001908152602001600020549050919050565b6060600180546107eb90612b6d565b80601f016020809104026020016040519081016040528092919081815260200182805461081790612b6d565b80156108645780601f1061083957610100808354040283529160200191610864565b820191906000526020600020905b81548152906001019060200180831161084757829003601f168201915b5050505050905090565b610880610879610db6565b83836111bc565b5050565b60006108906007611329565b9050600061095a6009600a600b600c610932600880546108af90612b6d565b80601f01602080910402602001604051908101604052809291908181526020018280546108db90612b6d565b80156109285780601f106108fd57610100808354040283529160200191610928565b820191906000526020600020905b81548152906001019060200180831161090b57829003601f168201915b5050505050611337565b60405160200161094695949392919061251f565b604051602081830303815290604052611337565b905060008160405160200161096f91906125ac565b604051602081830303815290604052905061098a33846114c1565b61099483826114df565b61099e6007611553565b6109c1604051806060016040528060258152602001613337602591398433611569565b7f6ba139b91eda0bf9f4e197caabfb79a480ab69f1cb726c85ea5d545fa95eb01533846040516109f2929190612635565b60405180910390a1505050565b610a10610a0a610db6565b83610e77565b610a4f576040517f08c379a0000000000000000000000000000000000000000000000000000000008152600401610a46906128b9565b60405180910390fd5b610a5b84848484611608565b50505050565b6060610a6c82610d4a565b610aab576040517f08c379a0000000000000000000000000000000000000000000000000000000008152600401610aa290612839565b60405180910390fd5b6000600660008481526020019081526020016000208054610acb90612b6d565b80601f0160208091040260200160405190810160405280929190818152602001828054610af790612b6d565b8015610b445780601f10610b1957610100808354040283529160200191610b44565b820191906000526020600020905b815481529060010190602001808311610b2757829003601f168201915b505050505090506000610b55611664565b9050600081511415610b6b578192505050610bae565b600082511115610ba0578082604051602001610b889291906124fb565b60405160208183030381529060405292505050610bae565b610ba98461167b565b925050505b919050565b6000600560008473ffffffffffffffffffffffffffffffffffffffff1673ffffffffffffffffffffffffffffffffffffffff16815260200190815260200160002060008373ffffffffffffffffffffffffffffffffffffffff1673ffffffffffffffffffffffffffffffffffffffff16815260200190815260200160002060009054906101000a900460ff16905092915050565b610cdd81604051602401610c5b9190612679565b6040516020818303038152906040527f41304fac000000000000000000000000000000000000000000000000000000007bffffffffffffffffffffffffffffffffffffffffffffffffffffffff19166020820180517bffffffffffffffffffffffffffffffffffffffffffffffffffffffff8381831617835250505050611722565b50565b60007f01ffc9a7000000000000000000000000000000000000000000000000000000007bffffffffffffffffffffffffffffffffffffffffffffffffffffffff1916827bffffffffffffffffffffffffffffffffffffffffffffffffffffffff1916149050919050565b60008073ffffffffffffffffffffffffffffffffffffffff166002600084815260200190815260200160002060009054906101000a900473ffffffffffffffffffffffffffffffffffffffff1673ffffffffffffffffffffffffffffffffffffffff1614159050919050565b600033905090565b816004600083815260200190815260200160002060006101000a81548173ffffffffffffffffffffffffffffffffffffffff021916908373ffffffffffffffffffffffffffffffffffffffff160217905550808273ffffffffffffffffffffffffffffffffffffffff16610e3183610672565b73ffffffffffffffffffffffffffffffffffffffff167f8c5be1e5ebec7d5bd14f71427d1e84f3dd0314c0f7b2291e5b200ac8c7c3b92560405160405180910390a45050565b6000610e8282610d4a565b610ec1576040517f08c379a0000000000000000000000000000000000000000000000000000000008152600401610eb890612779565b60405180910390fd5b6000610ecc83610672565b90508073ffffffffffffffffffffffffffffffffffffffff168473ffffffffffffffffffffffffffffffffffffffff161480610f3b57508373ffffffffffffffffffffffffffffffffffffffff16610f2384610455565b73ffffffffffffffffffffffffffffffffffffffff16145b80610f4c5750610f4b8185610bb3565b5b91505092915050565b8273ffffffffffffffffffffffffffffffffffffffff16610f7582610672565b73ffffffffffffffffffffffffffffffffffffffff1614610fcb576040517f08c379a0000000000000000000000000000000000000000000000000000000008152600401610fc2906126f9565b60405180910390fd5b600073ffffffffffffffffffffffffffffffffffffffff168273ffffffffffffffffffffffffffffffffffffffff16141561103b576040517f08c379a000000000000000000000000000000000000000000000000000000000815260040161103290612739565b60405180910390fd5b61104683838361174b565b611051600082610dbe565b6001600360008573ffffffffffffffffffffffffffffffffffffffff1673ffffffffffffffffffffffffffffffffffffffff16815260200190815260200160002060008282546110a19190612a83565b925050819055506001600360008473ffffffffffffffffffffffffffffffffffffffff1673ffffffffffffffffffffffffffffffffffffffff16815260200190815260200160002060008282546110f891906129a2565b92505081905550816002600083815260200190815260200160002060006101000a81548173ffffffffffffffffffffffffffffffffffffffff021916908373ffffffffffffffffffffffffffffffffffffffff160217905550808273ffffffffffffffffffffffffffffffffffffffff168473ffffffffffffffffffffffffffffffffffffffff167fddf252ad1be2c89b69c2b068fc378daa952ba7f163c4a11628f55a4df523b3ef60405160405180910390a46111b7838383611750565b505050565b8173ffffffffffffffffffffffffffffffffffffffff168373ffffffffffffffffffffffffffffffffffffffff16141561122b576040517f08c379a000000000000000000000000000000000000000000000000000000000815260040161122290612759565b60405180910390fd5b80600560008573ffffffffffffffffffffffffffffffffffffffff1673ffffffffffffffffffffffffffffffffffffffff16815260200190815260200160002060008473ffffffffffffffffffffffffffffffffffffffff1673ffffffffffffffffffffffffffffffffffffffff16815260200190815260200160002060006101000a81548160ff0219169083151502179055508173ffffffffffffffffffffffffffffffffffffffff168373ffffffffffffffffffffffffffffffffffffffff167f17307eab39ab6107e8899845ad3d59bd9653f200f220920489ca2b5937696c318360405161131c919061265e565b60405180910390a3505050565b600081600001549050919050565b606060008251141561135a576040518060200160405280600081525090506114bc565b600060405180606001604052806040815260200161335c604091399050600060036002855161138991906129a2565b61139391906129f8565b600461139f9190612a29565b67ffffffffffffffff8111156113de577f4e487b7100000000000000000000000000000000000000000000000000000000600052604160045260246000fd5b6040519080825280601f01601f1916602001820160405280156114105781602001600182028036833780820191505090505b509050600182016020820185865187015b8082101561147c576003820191508151603f8160121c168501518453600184019350603f81600c1c168501518453600184019350603f8160061c168501518453600184019350603f8116850151845360018401935050611421565b505060038651066001811461149857600281146114ab576114b3565b603d6001830353603d60028303536114b3565b603d60018303535b50505080925050505b919050565b6114db828260405180602001604052806000815250611755565b5050565b6114e882610d4a565b611527576040517f08c379a000000000000000000000000000000000000000000000000000000000815260040161151e906127f9565b60405180910390fd5b8060066000848152602001908152602001600020908051906020019061154e929190611cf1565b505050565b6001816000016000828254019250508190555050565b6116038383836040516024016115819392919061269b565b6040516020818303038152906040527fe3849f79000000000000000000000000000000000000000000000000000000007bffffffffffffffffffffffffffffffffffffffffffffffffffffffff19166020820180517bffffffffffffffffffffffffffffffffffffffffffffffffffffffff8381831617835250505050611722565b505050565b611613848484610f55565b61161f848484846117b0565b61165e576040517f08c379a0000000000000000000000000000000000000000000000000000000008152600401611655906126d9565b60405180910390fd5b50505050565b606060405180602001604052806000815250905090565b606061168682610d4a565b6116c5576040517f08c379a00000000000000000000000000000000000000000000000000000000081526004016116bc90612879565b60405180910390fd5b60006116cf611664565b905060008151116116ef576040518060200160405280600081525061171a565b806116f984611947565b60405160200161170a9291906124fb565b6040516020818303038152906040525b915050919050565b60008151905060006a636f6e736f6c652e6c6f679050602083016000808483855afa5050505050565b505050565b505050565b61175f8383611af4565b61176c60008484846117b0565b6117ab576040517f08c379a00000000000000000000000000000000000000000000000000000000081526004016117a2906126d9565b60405180910390fd5b505050565b60006117d18473ffffffffffffffffffffffffffffffffffffffff16611cce565b1561193a578373ffffffffffffffffffffffffffffffffffffffff1663150b7a026117fa610db6565b8786866040518563ffffffff1660e01b815260040161181c94939291906125e9565b602060405180830381600087803b15801561183657600080fd5b505af192505050801561186757506040513d601f19601f820116820180604052508101906118649190612035565b60015b6118ea573d8060008114611897576040519150601f19603f3d011682016040523d82523d6000602084013e61189c565b606091505b506000815114156118e2576040517f08c379a00000000000000000000000000000000000000000000000000000000081526004016118d9906126d9565b60405180910390fd5b805181602001fd5b63150b7a0260e01b7bffffffffffffffffffffffffffffffffffffffffffffffffffffffff1916817bffffffffffffffffffffffffffffffffffffffffffffffffffffffff19161491505061193f565b600190505b949350505050565b6060600082141561198f576040518060400160405280600181526020017f30000000000000000000000000000000000000000000000000000000000000008152509050611aef565b600082905060005b600082146119c15780806119aa90612bd0565b915050600a826119ba91906129f8565b9150611997565b60008167ffffffffffffffff811115611a03577f4e487b7100000000000000000000000000000000000000000000000000000000600052604160045260246000fd5b6040519080825280601f01601f191660200182016040528015611a355781602001600182028036833780820191505090505b5090505b60008514611ae857600182611a4e9190612a83565b9150600a85611a5d9190612c19565b6030611a6991906129a2565b60f81b818381518110611aa5577f4e487b7100000000000000000000000000000000000000000000000000000000600052603260045260246000fd5b60200101907effffffffffffffffffffffffffffffffffffffffffffffffffffffffffffff1916908160001a905350600a85611ae191906129f8565b9450611a39565b8093505050505b919050565b600073ffffffffffffffffffffffffffffffffffffffff168273ffffffffffffffffffffffffffffffffffffffff161415611b64576040517f08c379a0000000000000000000000000000000000000000000000000000000008152600401611b5b90612819565b60405180910390fd5b611b6d81610d4a565b15611bad576040517f08c379a0000000000000000000000000000000000000000000000000000000008152600401611ba490612719565b60405180910390fd5b611bb96000838361174b565b6001600360008473ffffffffffffffffffffffffffffffffffffffff1673ffffffffffffffffffffffffffffffffffffffff1681526020019081526020016000206000828254611c0991906129a2565b92505081905550816002600083815260200190815260200160002060006101000a81548173ffffffffffffffffffffffffffffffffffffffff021916908373ffffffffffffffffffffffffffffffffffffffff160217905550808273ffffffffffffffffffffffffffffffffffffffff16600073ffffffffffffffffffffffffffffffffffffffff167fddf252ad1be2c89b69c2b068fc378daa952ba7f163c4a11628f55a4df523b3ef60405160405180910390a4611cca60008383611750565b5050565b6000808273ffffffffffffffffffffffffffffffffffffffff163b119050919050565b828054611cfd90612b6d565b90600052602060002090601f016020900481019282611d1f5760008555611d66565b82601f10611d3857805160ff1916838001178555611d66565b82800160010185558215611d66579182015b82811115611d65578251825591602001919060010190611d4a565b5b509050611d739190611d77565b5090565b5b80821115611d90576000816000905550600101611d78565b5090565b6000611da7611da284612919565b6128f4565b905082815260208101848484011115611dbf57600080fd5b611dca848285612b2b565b509392505050565b600081359050611de1816132da565b92915050565b600081359050611df6816132f1565b92915050565b600081359050611e0b81613308565b92915050565b600081519050611e2081613308565b92915050565b600082601f830112611e3757600080fd5b8135611e47848260208601611d94565b91505092915050565b600081359050611e5f8161331f565b92915050565b600060208284031215611e7757600080fd5b6000611e8584828501611dd2565b91505092915050565b60008060408385031215611ea157600080fd5b6000611eaf85828601611dd2565b9250506020611ec085828601611dd2565b9150509250929050565b600080600060608486031215611edf57600080fd5b6000611eed86828701611dd2565b9350506020611efe86828701611dd2565b9250506040611f0f86828701611e50565b9150509250925092565b60008060008060808587031215611f2f57600080fd5b6000611f3d87828801611dd2565b9450506020611f4e87828801611dd2565b9350506040611f5f87828801611e50565b925050606085013567ffffffffffffffff811115611f7c57600080fd5b611f8887828801611e26565b91505092959194509250565b60008060408385031215611fa757600080fd5b6000611fb585828601611dd2565b9250506020611fc685828601611de7565b9150509250929050565b60008060408385031215611fe357600080fd5b6000611ff185828601611dd2565b925050602061200285828601611e50565b9150509250929050565b60006020828403121561201e57600080fd5b600061202c84828501611dfc565b91505092915050565b60006020828403121561204757600080fd5b600061205584828501611e11565b91505092915050565b60006020828403121561207057600080fd5b600061207e84828501611e50565b91505092915050565b61209081612ab7565b82525050565b61209f81612ac9565b82525050565b60006120b08261295f565b6120ba8185612975565b93506120ca818560208601612b3a565b6120d381612d06565b840191505092915050565b60006120e98261296a565b6120f38185612986565b9350612103818560208601612b3a565b61210c81612d06565b840191505092915050565b60006121228261296a565b61212c8185612997565b935061213c818560208601612b3a565b80840191505092915050565b6000815461215581612b6d565b61215f8186612997565b9450600182166000811461217a576001811461218b576121be565b60ff198316865281860193506121be565b6121948561294a565b60005b838110156121b657815481890152600182019150602081019050612197565b838801955050505b50505092915050565b60006121d4601383612997565b91506121df82612d17565b601382019050919050565b60006121f7603283612986565b915061220282612d40565b604082019050919050565b600061221a602583612986565b915061222582612d8f565b604082019050919050565b600061223d601c83612986565b915061224882612dde565b602082019050919050565b6000612260602483612986565b915061226b82612e07565b604082019050919050565b6000612283601983612986565b915061228e82612e56565b602082019050919050565b60006122a6601583612997565b91506122b182612e7f565b601582019050919050565b60006122c9602c83612986565b91506122d482612ea8565b604082019050919050565b60006122ec603883612986565b91506122f782612ef7565b604082019050919050565b600061230f602a83612986565b915061231a82612f46565b604082019050919050565b6000612332602983612986565b915061233d82612f95565b604082019050919050565b6000612355602e83612986565b915061236082612fe4565b604082019050919050565b6000612378600283612997565b915061238382613033565b600282019050919050565b600061239b602083612986565b91506123a68261305c565b602082019050919050565b60006123be603183612986565b91506123c982613085565b604082019050919050565b60006123e1602c83612986565b91506123ec826130d4565b604082019050919050565b6000612404601d83612997565b915061240f82613123565b601d82019050919050565b6000612427602f83612986565b91506124328261314c565b604082019050919050565b600061244a602783612997565b91506124558261319b565b602782019050919050565b600061246d600a83612997565b9150612478826131ea565b600a82019050919050565b6000612490602183612986565b915061249b82613213565b604082019050919050565b60006124b3601d83612997565b91506124be82613262565b601d82019050919050565b60006124d6603183612986565b91506124e18261328b565b604082019050919050565b6124f581612b21565b82525050565b60006125078285612117565b91506125138284612117565b91508190509392505050565b600061252a82612460565b91506125368288612148565b9150612541826121c7565b915061254d8287612148565b9150612558826123f7565b91506125648286612148565b915061256f82612299565b915061257b8285612148565b91506125868261243d565b91506125928284612117565b915061259d8261236b565b91508190509695505050505050565b60006125b7826124a6565b91506125c38284612117565b915081905092915050565b60006020820190506125e36000830184612087565b92915050565b60006080820190506125fe6000830187612087565b61260b6020830186612087565b61261860408301856124ec565b818103606083015261262a81846120a5565b905095945050505050565b600060408201905061264a6000830185612087565b61265760208301846124ec565b9392505050565b60006020820190506126736000830184612096565b92915050565b6000602082019050818103600083015261269381846120de565b905092915050565b600060608201905081810360008301526126b581866120de565b90506126c460208301856124ec565b6126d16040830184612087565b949350505050565b600060208201905081810360008301526126f2816121ea565b9050919050565b600060208201905081810360008301526127128161220d565b9050919050565b6000602082019050818103600083015261273281612230565b9050919050565b6000602082019050818103600083015261275281612253565b9050919050565b6000602082019050818103600083015261277281612276565b9050919050565b60006020820190508181036000830152612792816122bc565b9050919050565b600060208201905081810360008301526127b2816122df565b9050919050565b600060208201905081810360008301526127d281612302565b9050919050565b600060208201905081810360008301526127f281612325565b9050919050565b6000602082019050818103600083015261281281612348565b9050919050565b600060208201905081810360008301526128328161238e565b9050919050565b60006020820190508181036000830152612852816123b1565b9050919050565b60006020820190508181036000830152612872816123d4565b9050919050565b600060208201905081810360008301526128928161241a565b9050919050565b600060208201905081810360008301526128b281612483565b9050919050565b600060208201905081810360008301526128d2816124c9565b9050919050565b60006020820190506128ee60008301846124ec565b92915050565b60006128fe61290f565b905061290a8282612b9f565b919050565b6000604051905090565b600067ffffffffffffffff82111561293457612933612cd7565b5b61293d82612d06565b9050602081019050919050565b60008190508160005260206000209050919050565b600081519050919050565b600081519050919050565b600082825260208201905092915050565b600082825260208201905092915050565b600081905092915050565b60006129ad82612b21565b91506129b883612b21565b9250827fffffffffffffffffffffffffffffffffffffffffffffffffffffffffffffffff038211156129ed576129ec612c4a565b5b828201905092915050565b6000612a0382612b21565b9150612a0e83612b21565b925082612a1e57612a1d612c79565b5b828204905092915050565b6000612a3482612b21565b9150612a3f83612b21565b9250817fffffffffffffffffffffffffffffffffffffffffffffffffffffffffffffffff0483118215151615612a7857612a77612c4a565b5b828202905092915050565b6000612a8e82612b21565b9150612a9983612b21565b925082821015612aac57612aab612c4a565b5b828203905092915050565b6000612ac282612b01565b9050919050565b60008115159050919050565b60007fffffffff0000000000000000000000000000000000000000000000000000000082169050919050565b600073ffffffffffffffffffffffffffffffffffffffff82169050919050565b6000819050919050565b82818337600083830152505050565b60005b83811015612b58578082015181840152602081019050612b3d565b83811115612b67576000848401525b50505050565b60006002820490506001821680612b8557607f821691505b60208210811415612b9957612b98612ca8565b5b50919050565b612ba882612d06565b810181811067ffffffffffffffff82111715612bc757612bc6612cd7565b5b80604052505050565b6000612bdb82612b21565b91507fffffffffffffffffffffffffffffffffffffffffffffffffffffffffffffffff821415612c0e57612c0d612c4a565b5b600182019050919050565b6000612c2482612b21565b9150612c2f83612b21565b925082612c3f57612c3e612c79565b5b828206905092915050565b7f4e487b7100000000000000000000000000000000000000000000000000000000600052601160045260246000fd5b7f4e487b7100000000000000000000000000000000000000000000000000000000600052601260045260246000fd5b7f4e487b7100000000000000000000000000000000000000000000000000000000600052602260045260246000fd5b7f4e487b7100000000000000000000000000000000000000000000000000000000600052604160045260246000fd5b6000601f19601f8301169050919050565b7f222c20226465736372697074696f6e223a202200000000000000000000000000600082015250565b7f4552433732313a207472616e7366657220746f206e6f6e20455243373231526560008201527f63656976657220696d706c656d656e7465720000000000000000000000000000602082015250565b7f4552433732313a207472616e736665722066726f6d20696e636f72726563742060008201527f6f776e6572000000000000000000000000000000000000000000000000000000602082015250565b7f4552433732313a20746f6b656e20616c7265616479206d696e74656400000000600082015250565b7f4552433732313a207472616e7366657220746f20746865207a65726f2061646460008201527f7265737300000000000000000000000000000000000000000000000000000000602082015250565b7f4552433732313a20617070726f766520746f2063616c6c657200000000000000600082015250565b7f222c2022747265657320706c616e746564223a20220000000000000000000000600082015250565b7f4552433732313a206f70657261746f7220717565727920666f72206e6f6e657860008201527f697374656e7420746f6b656e0000000000000000000000000000000000000000602082015250565b7f4552433732313a20617070726f76652063616c6c6572206973206e6f74206f7760008201527f6e6572206e6f7220617070726f76656420666f7220616c6c0000000000000000602082015250565b7f4552433732313a2062616c616e636520717565727920666f7220746865207a6560008201527f726f206164647265737300000000000000000000000000000000000000000000602082015250565b7f4552433732313a206f776e657220717565727920666f72206e6f6e657869737460008201527f656e7420746f6b656e0000000000000000000000000000000000000000000000602082015250565b7f45524337323155524953746f726167653a2055524920736574206f66206e6f6e60008201527f6578697374656e7420746f6b656e000000000000000000000000000000000000602082015250565b7f227d000000000000000000000000000000000000000000000000000000000000600082015250565b7f4552433732313a206d696e7420746f20746865207a65726f2061646472657373600082015250565b7f45524337323155524953746f726167653a2055524920717565727920666f722060008201527f6e6f6e6578697374656e7420746f6b656e000000000000000000000000000000602082015250565b7f4552433732313a20617070726f76656420717565727920666f72206e6f6e657860008201527f697374656e7420746f6b656e0000000000000000000000000000000000000000602082015250565b7f222c20227472656520706c616e74696e672070726f6a656374223a2022000000600082015250565b7f4552433732314d657461646174613a2055524920717565727920666f72206e6f60008201527f6e6578697374656e7420746f6b656e0000000000000000000000000000000000602082015250565b7f222c2022696d616765223a2022646174613a696d6167652f7376672b786d6c3b60008201527f6261736536342c00000000000000000000000000000000000000000000000000602082015250565b7f7b226e616d65223a202200000000000000000000000000000000000000000000600082015250565b7f4552433732313a20617070726f76616c20746f2063757272656e74206f776e6560008201527f7200000000000000000000000000000000000000000000000000000000000000602082015250565b7f646174613a6170706c69636174696f6e2f6a736f6e3b6261736536342c000000600082015250565b7f4552433732313a207472616e736665722063616c6c6572206973206e6f74206f60008201527f776e6572206e6f7220617070726f766564000000000000000000000000000000602082015250565b6132e381612ab7565b81146132ee57600080fd5b50565b6132fa81612ac9565b811461330557600080fd5b50565b61331181612ad5565b811461331c57600080fd5b50565b61332881612b21565b811461333357600080fd5b5056fe416e204e465420772f20494420257320686173206265656e206d696e74656420746f2025734142434445464748494a4b4c4d4e4f505152535455565758595a6162636465666768696a6b6c6d6e6f707172737475767778797a303132333435363738392b2fa2646970667358221220556ce20716c8e8e0a453694f96b13cc14c77eff8bc89d128f7195327b1e1a2f764736f6c634300080100333c73766720786d6c6e733d27687474703a2f2f7777772e77332e6f72672f323030302f737667272077696474683d2733312e32373927206865696768743d2733312e323739272076696577426f783d273020302033312e3237392033312e32373927207374796c653d27656e61626c652d6261636b67726f756e643a6e6577203020302033312e3237392033312e3237392720786d6c3a73706163653d277072657365727665273e3c7061746820643d274d382e34393820342e37373520362e33383420332e3530346c332e3131352d2e303432562e3730314c342e39343320322e34376c2d2e39323920312e3620332e30373520312e33343648332e313832632d2e31393320302d2e33383620332e3230332d2e33383620332e32303368332e3731366c312e3938362d332e3834347a6d2e36323820372e3036354c352e36303320392e34313848322e3838316c342e30303420332e3331387a6d31342e3631372e33303220312e3437342e3730352d322e3131332d2e3235362e3736382d312e39383720342e3631312d2e33322d312e3932312d332e3236362d332e35383620322e3632372d332e3339362d312e3032362d332e33393320312e3938352d332e3834352d2e3132382d2e31393320312e37323920322e3536332e3939342d2e3235372e3939332d312e3938352d2e36342d332e3230332d312e3334372d312e3238322e37303576322e3137396c312e39383720312e33343568332e3734366c2e3339342031302e3038322d332e303820312e3639352e3030382e35303648332e38323776322e3536326832322e363038762d322e353632682d362e3830396c2e3030352d312e3135362d332e3531372d2e3939332e3033332d31302e31393120312e3132372d322e3530362d312e3331332d312e36343120332e3638352e3136372d312e36343320312e35363220312e3839362e30373220322e3433352d2e39323920312e37323220312e34383220332e3830342d2e3032322e3332352d332e3538332d342e31322e3133387a272f3e3c7061746820643d276d31372e3137382031362e343120312e39323120312e37333120342e3333342d2e393731762d322e3439682d352e3537357a6d312e3435382d31312e3735312d2e31343520322e38373120312e30392e34303720312e3636362d322e3439392e3139312d342e3736322d332e3230352d2e3531372d322e3420332e3632347a6d322e38303220312e393176312e37323968312e3739336c332e3230342d322e3639312d332e3230342d332e3339342d2e3839372e38352e31323820322e3139337a272f3e3c7061746820643d276d392e35393520352e3235362d2e35383420312e31322e3834382e3634322d2e3237312e3936312d312e3630332d2e3534352d312e313220312e39383420322e36333420312e38393320312e3934352d2e3736362e3732372d322e3234372e3734362e333231762e3730346c332e3937352d2e3235352e3633362d312e37393556352e3238396c2d332e3037332d2e39363320312e3032362d312e3435354c31362e3732392e3839392031342e3738332e3033352031302e36353120306c2d2e30343720332e39353820332e33303720312e39372d2e3939342e3434387a272f3e3c672f3e3c672f3e3c672f3e3c672f3e3c672f3e3c672f3e3c672f3e3c672f3e3c672f3e3c672f3e3c672f3e3c672f3e3c672f3e3c672f3e3c672f3e3c2f7376673e6576657279204e4654202d206d696e746564207472656520656e61626c6573206f6e65207472656520706c616e74656468747470733a2f2f7777772e6564656e70726f6a656374732e6f72672f207669612045636f6c6f6769",
  "linkReferences": {},
  "deployedLinkReferences": {}
}